{
  "_format": "hh-sol-artifact-1",
  "contractName": "Funding",
  "sourceName": "contracts/funding.sol",
  "abi": [
    {
      "inputs": [],
      "stateMutability": "nonpayable",
      "type": "constructor"
    },
    {
      "inputs": [
        {
          "internalType": "string",
          "name": "name",
          "type": "string"
        },
        {
          "internalType": "string",
          "name": "message",
          "type": "string"
        }
      ],
      "name": "fundMe",
      "outputs": [],
      "stateMutability": "payable",
      "type": "function"
    },
    {
      "inputs": [],
      "name": "getMemos",
      "outputs": [
        {
          "components": [
            {
              "internalType": "string",
              "name": "name",
              "type": "string"
            },
            {
              "internalType": "string",
              "name": "message",
              "type": "string"
            },
            {
              "internalType": "uint256",
              "name": "timestamp",
              "type": "uint256"
            },
            {
              "internalType": "address",
              "name": "from",
              "type": "address"
            }
          ],
          "internalType": "struct Funding.Memo[]",
          "name": "",
          "type": "tuple[]"
        }
      ],
      "stateMutability": "view",
      "type": "function"
    }
  ],
  "bytecode": "0x608060405234801561001057600080fd5b50600180546001600160a01b0319163317905561064b806100326000396000f3fe6080604052600436106100295760003560e01c8063865c51721461002e578063a58a3aee14610059575b600080fd5b34801561003a57600080fd5b5061004361006e565b6040516100509190610521565b60405180910390f35b61006c610067366004610475565b610214565b005b60606000805480602002602001604051908101604052809291908181526020016000905b8282101561020b57838290600052602060002090600402016040518060800160405290816000820180546100c5906105c4565b80601f01602080910402602001604051908101604052809291908181526020018280546100f1906105c4565b801561013e5780601f106101135761010080835404028352916020019161013e565b820191906000526020600020905b81548152906001019060200180831161012157829003601f168201915b50505050508152602001600182018054610157906105c4565b80601f0160208091040260200160405190810160405280929190818152602001828054610183906105c4565b80156101d05780601f106101a5576101008083540402835291602001916101d0565b820191906000526020600020905b8154815290600101906020018083116101b357829003601f168201915b505050918352505060028201546020808301919091526003909201546001600160a01b03166040909101529082526001929092019101610092565b50505050905090565b600034116102605760405162461bcd60e51b81526020600482015260156024820152740383632b0b9b2903830bc903b30b634b21022aa241605d1b604482015260640160405180910390fd5b6001546040516001600160a01b03909116903480156108fc02916000818181858888f19350505050158015610299573d6000803e3d6000fd5b5060408051608081018252838152602080820184905242928201929092523360608201526000805460018101825590805281518051929360049092027f290decd9548b62a8d60345a988386fc84ba6bc95484008f6362f93160ef3e56301926103059284920190610355565b50602082810151805161031e9260018501920190610355565b5060408201516002820155606090910151600390910180546001600160a01b0319166001600160a01b039092169190911790555050565b828054610361906105c4565b90600052602060002090601f01602090048101928261038357600085556103c9565b82601f1061039c57805160ff19168380011785556103c9565b828001600101855582156103c9579182015b828111156103c95782518255916020019190600101906103ae565b506103d59291506103d9565b5090565b5b808211156103d557600081556001016103da565b600082601f8301126103fe578081fd5b813567ffffffffffffffff80821115610419576104196105ff565b604051601f8301601f19908116603f01168101908282118183101715610441576104416105ff565b81604052838152866020858801011115610459578485fd5b8360208701602083013792830160200193909352509392505050565b60008060408385031215610487578182fd5b823567ffffffffffffffff8082111561049e578384fd5b6104aa868387016103ee565b935060208501359150808211156104bf578283fd5b506104cc858286016103ee565b9150509250929050565b60008151808452815b818110156104fb576020818501810151868301820152016104df565b8181111561050c5782602083870101525b50601f01601f19169290920160200192915050565b60006020808301818452808551808352604092508286019150828160051b870101848801865b838110156105b657603f1989840301855281516080815181865261056d828701826104d6565b915050888201518582038a87015261058582826104d6565b838a0151878b01526060938401516001600160a01b0316939096019290925250509386019390860190600101610547565b509098975050505050505050565b600181811c908216806105d857607f821691505b602082108114156105f957634e487b7160e01b600052602260045260246000fd5b50919050565b634e487b7160e01b600052604160045260246000fdfea264697066735822122085f7a9d1512a197ea918918c3e1050f72596a49c5f12b0ee7c07d29f6c6dfdd164736f6c63430008040033",
  "linkReferences": {},
  "deployedLinkReferences": {}
}